{
  "address": "0x4089bd4bfbF4a4De8bD881f605189318b85baD0B",
  "abi": [
    {
      "inputs": [
        {
          "internalType": "string",
          "name": "name",
          "type": "string"
        },
        {
          "internalType": "string",
          "name": "symbol",
          "type": "string"
        }
      ],
      "stateMutability": "nonpayable",
      "type": "constructor"
    },
    {
      "inputs": [],
      "name": "ERC721EnumerableForbiddenBatchMint",
      "type": "error"
    },
    {
      "inputs": [
        {
          "internalType": "address",
          "name": "sender",
          "type": "address"
        },
        {
          "internalType": "uint256",
          "name": "tokenId",
          "type": "uint256"
        },
        {
          "internalType": "address",
          "name": "owner",
          "type": "address"
        }
      ],
      "name": "ERC721IncorrectOwner",
      "type": "error"
    },
    {
      "inputs": [
        {
          "internalType": "address",
          "name": "operator",
          "type": "address"
        },
        {
          "internalType": "uint256",
          "name": "tokenId",
          "type": "uint256"
        }
      ],
      "name": "ERC721InsufficientApproval",
      "type": "error"
    },
    {
      "inputs": [
        {
          "internalType": "address",
          "name": "approver",
          "type": "address"
        }
      ],
      "name": "ERC721InvalidApprover",
      "type": "error"
    },
    {
      "inputs": [
        {
          "internalType": "address",
          "name": "operator",
          "type": "address"
        }
      ],
      "name": "ERC721InvalidOperator",
      "type": "error"
    },
    {
      "inputs": [
        {
          "internalType": "address",
          "name": "owner",
          "type": "address"
        }
      ],
      "name": "ERC721InvalidOwner",
      "type": "error"
    },
    {
      "inputs": [
        {
          "internalType": "address",
          "name": "receiver",
          "type": "address"
        }
      ],
      "name": "ERC721InvalidReceiver",
      "type": "error"
    },
    {
      "inputs": [
        {
          "internalType": "address",
          "name": "sender",
          "type": "address"
        }
      ],
      "name": "ERC721InvalidSender",
      "type": "error"
    },
    {
      "inputs": [
        {
          "internalType": "uint256",
          "name": "tokenId",
          "type": "uint256"
        }
      ],
      "name": "ERC721NonexistentToken",
      "type": "error"
    },
    {
      "inputs": [
        {
          "internalType": "address",
          "name": "owner",
          "type": "address"
        },
        {
          "internalType": "uint256",
          "name": "index",
          "type": "uint256"
        }
      ],
      "name": "ERC721OutOfBoundsIndex",
      "type": "error"
    },
    {
      "anonymous": false,
      "inputs": [
        {
          "indexed": true,
          "internalType": "address",
          "name": "owner",
          "type": "address"
        },
        {
          "indexed": true,
          "internalType": "address",
          "name": "approved",
          "type": "address"
        },
        {
          "indexed": true,
          "internalType": "uint256",
          "name": "tokenId",
          "type": "uint256"
        }
      ],
      "name": "Approval",
      "type": "event"
    },
    {
      "anonymous": false,
      "inputs": [
        {
          "indexed": true,
          "internalType": "address",
          "name": "owner",
          "type": "address"
        },
        {
          "indexed": true,
          "internalType": "address",
          "name": "operator",
          "type": "address"
        },
        {
          "indexed": false,
          "internalType": "bool",
          "name": "approved",
          "type": "bool"
        }
      ],
      "name": "ApprovalForAll",
      "type": "event"
    },
    {
      "anonymous": false,
      "inputs": [
        {
          "indexed": false,
          "internalType": "uint256",
          "name": "_fromTokenId",
          "type": "uint256"
        },
        {
          "indexed": false,
          "internalType": "uint256",
          "name": "_toTokenId",
          "type": "uint256"
        }
      ],
      "name": "BatchMetadataUpdate",
      "type": "event"
    },
    {
      "anonymous": false,
      "inputs": [
        {
          "indexed": false,
          "internalType": "uint256",
          "name": "_tokenId",
          "type": "uint256"
        }
      ],
      "name": "MetadataUpdate",
      "type": "event"
    },
    {
      "anonymous": false,
      "inputs": [
        {
          "indexed": true,
          "internalType": "address",
          "name": "from",
          "type": "address"
        },
        {
          "indexed": true,
          "internalType": "address",
          "name": "to",
          "type": "address"
        },
        {
          "indexed": true,
          "internalType": "uint256",
          "name": "tokenId",
          "type": "uint256"
        }
      ],
      "name": "Transfer",
      "type": "event"
    },
    {
      "inputs": [
        {
          "internalType": "address",
          "name": "to",
          "type": "address"
        },
        {
          "internalType": "uint256",
          "name": "tokenId",
          "type": "uint256"
        }
      ],
      "name": "approve",
      "outputs": [],
      "stateMutability": "nonpayable",
      "type": "function"
    },
    {
      "inputs": [
        {
          "internalType": "address",
          "name": "owner",
          "type": "address"
        }
      ],
      "name": "balanceOf",
      "outputs": [
        {
          "internalType": "uint256",
          "name": "",
          "type": "uint256"
        }
      ],
      "stateMutability": "view",
      "type": "function"
    },
    {
      "inputs": [
        {
          "internalType": "bytes32",
          "name": "proposalId",
          "type": "bytes32"
        },
        {
          "internalType": "address[]",
          "name": "recipients",
          "type": "address[]"
        }
      ],
      "name": "closeBids",
      "outputs": [],
      "stateMutability": "nonpayable",
      "type": "function"
    },
    {
      "inputs": [
        {
          "internalType": "address",
          "name": "creator",
          "type": "address"
        },
        {
          "internalType": "uint256",
          "name": "minimumFunding",
          "type": "uint256"
        },
        {
          "internalType": "address",
          "name": "biddingToken",
          "type": "address"
        },
        {
          "internalType": "uint256",
          "name": "nonce",
          "type": "uint256"
        }
      ],
      "name": "computeProposalId",
      "outputs": [
        {
          "internalType": "bytes32",
          "name": "",
          "type": "bytes32"
        }
      ],
      "stateMutability": "pure",
      "type": "function"
    },
    {
      "inputs": [
        {
          "internalType": "uint256",
          "name": "_minimumFunding",
          "type": "uint256"
        },
        {
          "internalType": "address",
          "name": "_biddingToken",
          "type": "address"
        },
        {
          "internalType": "uint256",
          "name": "_nonce",
          "type": "uint256"
        }
      ],
      "name": "createProposal",
      "outputs": [
        {
          "internalType": "bytes32",
          "name": "",
          "type": "bytes32"
        }
      ],
      "stateMutability": "nonpayable",
      "type": "function"
    },
    {
      "inputs": [
        {
          "internalType": "uint256",
          "name": "tokenId",
          "type": "uint256"
        }
      ],
      "name": "getApproved",
      "outputs": [
        {
          "internalType": "address",
          "name": "",
          "type": "address"
        }
      ],
      "stateMutability": "view",
      "type": "function"
    },
    {
      "inputs": [
        {
          "internalType": "uint256",
          "name": "tokenId",
          "type": "uint256"
        }
      ],
      "name": "getProposalId",
      "outputs": [
        {
          "internalType": "bytes32",
          "name": "",
          "type": "bytes32"
        }
      ],
      "stateMutability": "view",
      "type": "function"
    },
    {
      "inputs": [
        {
          "internalType": "address",
          "name": "owner",
          "type": "address"
        },
        {
          "internalType": "address",
          "name": "operator",
          "type": "address"
        }
      ],
      "name": "isApprovedForAll",
      "outputs": [
        {
          "internalType": "bool",
          "name": "",
          "type": "bool"
        }
      ],
      "stateMutability": "view",
      "type": "function"
    },
    {
      "inputs": [],
      "name": "name",
      "outputs": [
        {
          "internalType": "string",
          "name": "",
          "type": "string"
        }
      ],
      "stateMutability": "view",
      "type": "function"
    },
    {
      "inputs": [
        {
          "internalType": "uint256",
          "name": "tokenId",
          "type": "uint256"
        }
      ],
      "name": "ownerOf",
      "outputs": [
        {
          "internalType": "address",
          "name": "",
          "type": "address"
        }
      ],
      "stateMutability": "view",
      "type": "function"
    },
    {
      "inputs": [
        {
          "internalType": "bytes32",
          "name": "",
          "type": "bytes32"
        }
      ],
      "name": "proposals",
      "outputs": [
        {
          "internalType": "address",
          "name": "creator",
          "type": "address"
        },
        {
          "internalType": "uint256",
          "name": "minimumFunding",
          "type": "uint256"
        },
        {
          "internalType": "contract IERC20",
          "name": "biddingToken",
          "type": "address"
        },
        {
          "internalType": "uint256",
          "name": "tokenIdCounter",
          "type": "uint256"
        },
        {
          "internalType": "bool",
          "name": "isClosed",
          "type": "bool"
        },
        {
          "internalType": "uint256",
          "name": "nonce",
          "type": "uint256"
        }
      ],
      "stateMutability": "view",
      "type": "function"
    },
    {
      "inputs": [
        {
          "internalType": "address",
          "name": "from",
          "type": "address"
        },
        {
          "internalType": "address",
          "name": "to",
          "type": "address"
        },
        {
          "internalType": "uint256",
          "name": "tokenId",
          "type": "uint256"
        }
      ],
      "name": "safeTransferFrom",
      "outputs": [],
      "stateMutability": "nonpayable",
      "type": "function"
    },
    {
      "inputs": [
        {
          "internalType": "address",
          "name": "from",
          "type": "address"
        },
        {
          "internalType": "address",
          "name": "to",
          "type": "address"
        },
        {
          "internalType": "uint256",
          "name": "tokenId",
          "type": "uint256"
        },
        {
          "internalType": "bytes",
          "name": "data",
          "type": "bytes"
        }
      ],
      "name": "safeTransferFrom",
      "outputs": [],
      "stateMutability": "nonpayable",
      "type": "function"
    },
    {
      "inputs": [
        {
          "internalType": "address",
          "name": "operator",
          "type": "address"
        },
        {
          "internalType": "bool",
          "name": "approved",
          "type": "bool"
        }
      ],
      "name": "setApprovalForAll",
      "outputs": [],
      "stateMutability": "nonpayable",
      "type": "function"
    },
    {
      "inputs": [
        {
          "internalType": "bytes4",
          "name": "interfaceId",
          "type": "bytes4"
        }
      ],
      "name": "supportsInterface",
      "outputs": [
        {
          "internalType": "bool",
          "name": "",
          "type": "bool"
        }
      ],
      "stateMutability": "view",
      "type": "function"
    },
    {
      "inputs": [],
      "name": "symbol",
      "outputs": [
        {
          "internalType": "string",
          "name": "",
          "type": "string"
        }
      ],
      "stateMutability": "view",
      "type": "function"
    },
    {
      "inputs": [
        {
          "internalType": "uint256",
          "name": "index",
          "type": "uint256"
        }
      ],
      "name": "tokenByIndex",
      "outputs": [
        {
          "internalType": "uint256",
          "name": "",
          "type": "uint256"
        }
      ],
      "stateMutability": "view",
      "type": "function"
    },
    {
      "inputs": [
        {
          "internalType": "address",
          "name": "owner",
          "type": "address"
        },
        {
          "internalType": "uint256",
          "name": "index",
          "type": "uint256"
        }
      ],
      "name": "tokenOfOwnerByIndex",
      "outputs": [
        {
          "internalType": "uint256",
          "name": "",
          "type": "uint256"
        }
      ],
      "stateMutability": "view",
      "type": "function"
    },
    {
      "inputs": [
        {
          "internalType": "uint256",
          "name": "tokenId",
          "type": "uint256"
        }
      ],
      "name": "tokenURI",
      "outputs": [
        {
          "internalType": "string",
          "name": "",
          "type": "string"
        }
      ],
      "stateMutability": "view",
      "type": "function"
    },
    {
      "inputs": [],
      "name": "totalSupply",
      "outputs": [
        {
          "internalType": "uint256",
          "name": "",
          "type": "uint256"
        }
      ],
      "stateMutability": "view",
      "type": "function"
    },
    {
      "inputs": [
        {
          "internalType": "address",
          "name": "from",
          "type": "address"
        },
        {
          "internalType": "address",
          "name": "to",
          "type": "address"
        },
        {
          "internalType": "uint256",
          "name": "tokenId",
          "type": "uint256"
        }
      ],
      "name": "transferFrom",
      "outputs": [],
      "stateMutability": "nonpayable",
      "type": "function"
    }
  ],
  "transactionHash": "0xc29d63b11aab5a192df3f6df79b8ba9c19b9be88e7985fe4f0211ef5c7267d38",
  "args": [
    "Proposal NFT",
    "PROPOSAL"
  ],
  "numDeployments": 1,
  "solcInputHash": "68386bd123197218997ac1e842278a2e",
  "bytecode": "0x60806040523480156200001157600080fd5b5060405162001d5338038062001d53833981016040819052620000349162000126565b8181600062000044838262000221565b50600162000053828262000221565b5050505050620002ed565b634e487b7160e01b600052604160045260246000fd5b600082601f8301126200008657600080fd5b81516001600160401b0380821115620000a357620000a36200005e565b604051601f8301601f19908116603f01168101908282118183101715620000ce57620000ce6200005e565b8160405283815260209250866020858801011115620000ec57600080fd5b600091505b83821015620001105785820183015181830184015290820190620000f1565b6000602085830101528094505050505092915050565b600080604083850312156200013a57600080fd5b82516001600160401b03808211156200015257600080fd5b620001608683870162000074565b935060208501519150808211156200017757600080fd5b50620001868582860162000074565b9150509250929050565b600181811c90821680620001a557607f821691505b602082108103620001c657634e487b7160e01b600052602260045260246000fd5b50919050565b601f8211156200021c576000816000526020600020601f850160051c81016020861015620001f75750805b601f850160051c820191505b81811015620002185782815560010162000203565b5050505b505050565b81516001600160401b038111156200023d576200023d6200005e565b62000255816200024e845462000190565b84620001cc565b602080601f8311600181146200028d5760008415620002745750858301515b600019600386901b1c1916600185901b17855562000218565b600085815260208120601f198616915b82811015620002be578886015182559484019460019091019084016200029d565b5085821015620002dd5787850151600019600388901b60f8161c191681555b5050505050600190811b01905550565b611a5680620002fd6000396000f3fe608060405234801561001057600080fd5b50600436106101375760003560e01c80634f6ccce7116100b857806395d89b411161007c57806395d89b411461030b578063a22cb46514610313578063b88d4fde14610326578063b95a928714610339578063c87b56dd1461034c578063e985e9c51461035f57600080fd5b80634f6ccce7146102ac5780636352211e146102bf57806370a08231146102d25780637c95ac27146102e557806394f0ff38146102f857600080fd5b806323b872dd116100ff57806323b872dd146101cb5780632f745c59146101de57806332ed5b12146101f15780633b4549ee1461028657806342842e0e1461029957600080fd5b806301ffc9a71461013c57806306fdde0314610164578063081812fc14610179578063095ea7b3146101a457806318160ddd146101b9575b600080fd5b61014f61014a366004611524565b610372565b60405190151581526020015b60405180910390f35b61016c610383565b60405161015b9190611591565b61018c6101873660046115a4565b610415565b6040516001600160a01b03909116815260200161015b565b6101b76101b23660046115d9565b61043e565b005b6008545b60405190815260200161015b565b6101b76101d9366004611603565b61044d565b6101bd6101ec3660046115d9565b6104dd565b6102466101ff3660046115a4565b600b602052600090815260409020805460018201546002830154600384015460048501546005909501546001600160a01b0394851695939490921692909160ff9091169086565b604080516001600160a01b0397881681526020810196909652939095169284019290925260608301521515608082015260a081019190915260c00161015b565b6101b761029436600461163f565b610542565b6101b76102a7366004611603565b610689565b6101bd6102ba3660046115a4565b6106a9565b61018c6102cd3660046115a4565b610702565b6101bd6102e03660046116be565b61070d565b6101bd6102f33660046115a4565b610755565b6101bd6103063660046116d9565b6107cc565b61016c610805565b6101b761032136600461171d565b610814565b6101b761033436600461176f565b61081f565b6101bd61034736600461184b565b610837565b61016c61035a3660046115a4565b610970565b61014f61036d366004611870565b61097b565b600061037d826109a9565b92915050565b606060008054610392906118a3565b80601f01602080910402602001604051908101604052809291908181526020018280546103be906118a3565b801561040b5780601f106103e05761010080835404028352916020019161040b565b820191906000526020600020905b8154815290600101906020018083116103ee57829003601f168201915b5050505050905090565b6000610420826109ce565b506000828152600460205260409020546001600160a01b031661037d565b610449828233610a07565b5050565b6001600160a01b03821661047c57604051633250574960e11b8152600060048201526024015b60405180910390fd5b6000610489838333610a14565b9050836001600160a01b0316816001600160a01b0316146104d7576040516364283d7b60e01b81526001600160a01b0380861660048301526024820184905282166044820152606401610473565b50505050565b60006104e88361070d565b82106105195760405163295f44f760e21b81526001600160a01b038416600482015260248101839052604401610473565b506001600160a01b03919091166000908152600660209081526040808320938352929052205490565b6000838152600b6020526040902080546001600160a01b031633146105a95760405162461bcd60e51b815260206004820152601b60248201527f4f6e6c792063726561746f722063616e20636c6f7365206269647300000000006044820152606401610473565b600481015460ff16156105f75760405162461bcd60e51b8152602060048201526016602482015275109a59191a5b99c8185b1c9958591e4818db1bdcd95960521b6044820152606401610473565b60005b8281101561067557600382015460009061061490876118f3565b905061064685858481811061062b5761062b611906565b905060200201602081019061064091906116be565b82610a29565b6000818152600c60205260408120879055600384018054916106678361191c565b9091555050506001016105fa565b50600401805460ff19166001179055505050565b6106a48383836040518060200160405280600081525061081f565b505050565b60006106b460085490565b82106106dd5760405163295f44f760e21b81526000600482015260248101839052604401610473565b600882815481106106f0576106f0611906565b90600052602060002001549050919050565b600061037d826109ce565b60006001600160a01b038216610739576040516322718ad960e21b815260006004820152602401610473565b506001600160a01b031660009081526003602052604090205490565b6000818152600260205260408120546001600160a01b03166107b95760405162461bcd60e51b815260206004820152601860248201527f4552433732313a20696e76616c696420746f6b656e20494400000000000000006044820152606401610473565b506000908152600c602052604090205490565b6000848484846040516020016107e59493929190611935565b604051602081830303815290604052805190602001209050949350505050565b606060018054610392906118a3565b610449338383610a43565b61082a84848461044d565b6104d73385858585610ae2565b600080338585856040516020016108519493929190611935565b60408051601f1981840301815291815281516020928301206000818152600b9093529120549091506001600160a01b0316156108cf5760405162461bcd60e51b815260206004820152601760248201527f50726f706f73616c20616c7265616479206578697374730000000000000000006044820152606401610473565b6040805160c08101825233815260208082019788526001600160a01b039687168284019081526000606084018181526080850182815260a08601998a52878352600b909452949020925183549089166001600160a01b0319918216178455985160018401555160028301805491909816981697909717909555516003850155935160048401805491151560ff19909216919091179055505160059091015590565b606061037d82610c0d565b6001600160a01b03918216600090815260056020908152604080832093909416825291909152205460ff1690565b60006001600160e01b03198216632483248360e11b148061037d575061037d82610d16565b6000818152600260205260408120546001600160a01b03168061037d57604051637e27328960e01b815260048101849052602401610473565b6106a48383836001610d3b565b6000610a21848484610e41565b949350505050565b610449828260405180602001604052806000815250610f0e565b6001600160a01b038216610a7557604051630b61174360e31b81526001600160a01b0383166004820152602401610473565b6001600160a01b03838116600081815260056020908152604080832094871680845294825291829020805460ff191686151590811790915591519182527f17307eab39ab6107e8899845ad3d59bd9653f200f220920489ca2b5937696c31910160405180910390a3505050565b6001600160a01b0383163b15610c0657604051630a85bd0160e11b81526001600160a01b0384169063150b7a0290610b2490889088908790879060040161196e565b6020604051808303816000875af1925050508015610b5f575060408051601f3d908101601f19168201909252610b5c918101906119ab565b60015b610bc8573d808015610b8d576040519150601f19603f3d011682016040523d82523d6000602084013e610b92565b606091505b508051600003610bc057604051633250574960e11b81526001600160a01b0385166004820152602401610473565b805181602001fd5b6001600160e01b03198116630a85bd0160e11b14610c0457604051633250574960e11b81526001600160a01b0385166004820152602401610473565b505b5050505050565b6060610c18826109ce565b506000828152600a602052604081208054610c32906118a3565b80601f0160208091040260200160405190810160405280929190818152602001828054610c5e906118a3565b8015610cab5780601f10610c8057610100808354040283529160200191610cab565b820191906000526020600020905b815481529060010190602001808311610c8e57829003601f168201915b505050505090506000610cc960408051602081019091526000815290565b90508051600003610cdb575092915050565b815115610d0d578082604051602001610cf59291906119c8565b60405160208183030381529060405292505050919050565b610a2184610f26565b60006001600160e01b0319821663780e9d6360e01b148061037d575061037d82610f9b565b8080610d4f57506001600160a01b03821615155b15610e11576000610d5f846109ce565b90506001600160a01b03831615801590610d8b5750826001600160a01b0316816001600160a01b031614155b8015610d9e5750610d9c818461097b565b155b15610dc75760405163a9fbf51f60e01b81526001600160a01b0384166004820152602401610473565b8115610e0f5783856001600160a01b0316826001600160a01b03167f8c5be1e5ebec7d5bd14f71427d1e84f3dd0314c0f7b2291e5b200ac8c7c3b92560405160405180910390a45b505b5050600090815260046020526040902080546001600160a01b0319166001600160a01b0392909216919091179055565b600080610e4f858585610feb565b90506001600160a01b038116610eac57610ea784600880546000838152600960205260408120829055600182018355919091527ff3f7a9fe364faab93b216da50a3214154f22a0a2b415b23a84c8169e8b636ee30155565b610ecf565b846001600160a01b0316816001600160a01b031614610ecf57610ecf81856110e4565b6001600160a01b038516610eeb57610ee684611175565b610a21565b846001600160a01b0316816001600160a01b031614610a2157610a218585611224565b610f188383611274565b6106a4336000858585610ae2565b6060610f31826109ce565b506000610f4960408051602081019091526000815290565b90506000815111610f695760405180602001604052806000815250610f94565b80610f73846112d9565b604051602001610f849291906119c8565b6040516020818303038152906040525b9392505050565b60006001600160e01b031982166380ac58cd60e01b1480610fcc57506001600160e01b03198216635b5e139f60e01b145b8061037d57506301ffc9a760e01b6001600160e01b031983161461037d565b6000828152600260205260408120546001600160a01b03908116908316156110185761101881848661136c565b6001600160a01b0381161561105657611035600085600080610d3b565b6001600160a01b038116600090815260036020526040902080546000190190555b6001600160a01b03851615611085576001600160a01b0385166000908152600360205260409020805460010190555b60008481526002602052604080822080546001600160a01b0319166001600160a01b0389811691821790925591518793918516917fddf252ad1be2c89b69c2b068fc378daa952ba7f163c4a11628f55a4df523b3ef91a4949350505050565b60006110ef8361070d565b600083815260076020526040902054909150808214611142576001600160a01b03841660009081526006602090815260408083208584528252808320548484528184208190558352600790915290208190555b5060009182526007602090815260408084208490556001600160a01b039094168352600681528383209183525290812055565b600854600090611187906001906119f7565b600083815260096020526040812054600880549394509092849081106111af576111af611906565b9060005260206000200154905080600883815481106111d0576111d0611906565b600091825260208083209091019290925582815260099091526040808220849055858252812055600880548061120857611208611a0a565b6001900381819060005260206000200160009055905550505050565b600060016112318461070d565b61123b91906119f7565b6001600160a01b039093166000908152600660209081526040808320868452825280832085905593825260079052919091209190915550565b6001600160a01b03821661129e57604051633250574960e11b815260006004820152602401610473565b60006112ac83836000610a14565b90506001600160a01b038116156106a4576040516339e3563760e11b815260006004820152602401610473565b606060006112e6836113d0565b600101905060008167ffffffffffffffff81111561130657611306611759565b6040519080825280601f01601f191660200182016040528015611330576020820181803683370190505b5090508181016020015b600019016f181899199a1a9b1b9c1cb0b131b232b360811b600a86061a8153600a850494508461133a57509392505050565b6113778383836114a8565b6106a4576001600160a01b0383166113a557604051637e27328960e01b815260048101829052602401610473565b60405163177e802f60e01b81526001600160a01b038316600482015260248101829052604401610473565b60008072184f03e93ff9f4daa797ed6e38ed64bf6a1f0160401b831061140f5772184f03e93ff9f4daa797ed6e38ed64bf6a1f0160401b830492506040015b6d04ee2d6d415b85acef8100000000831061143b576d04ee2d6d415b85acef8100000000830492506020015b662386f26fc10000831061145957662386f26fc10000830492506010015b6305f5e1008310611471576305f5e100830492506008015b612710831061148557612710830492506004015b60648310611497576064830492506002015b600a831061037d5760010192915050565b60006001600160a01b03831615801590610a215750826001600160a01b0316846001600160a01b031614806114e257506114e2848461097b565b80610a215750506000908152600460205260409020546001600160a01b03908116911614919050565b6001600160e01b03198116811461152157600080fd5b50565b60006020828403121561153657600080fd5b8135610f948161150b565b60005b8381101561155c578181015183820152602001611544565b50506000910152565b6000815180845261157d816020860160208601611541565b601f01601f19169290920160200192915050565b602081526000610f946020830184611565565b6000602082840312156115b657600080fd5b5035919050565b80356001600160a01b03811681146115d457600080fd5b919050565b600080604083850312156115ec57600080fd5b6115f5836115bd565b946020939093013593505050565b60008060006060848603121561161857600080fd5b611621846115bd565b925061162f602085016115bd565b9150604084013590509250925092565b60008060006040848603121561165457600080fd5b83359250602084013567ffffffffffffffff8082111561167357600080fd5b818601915086601f83011261168757600080fd5b81358181111561169657600080fd5b8760208260051b85010111156116ab57600080fd5b6020830194508093505050509250925092565b6000602082840312156116d057600080fd5b610f94826115bd565b600080600080608085870312156116ef57600080fd5b6116f8856115bd565b93506020850135925061170d604086016115bd565b9396929550929360600135925050565b6000806040838503121561173057600080fd5b611739836115bd565b91506020830135801515811461174e57600080fd5b809150509250929050565b634e487b7160e01b600052604160045260246000fd5b6000806000806080858703121561178557600080fd5b61178e856115bd565b935061179c602086016115bd565b925060408501359150606085013567ffffffffffffffff808211156117c057600080fd5b818701915087601f8301126117d457600080fd5b8135818111156117e6576117e6611759565b604051601f8201601f19908116603f0116810190838211818310171561180e5761180e611759565b816040528281528a602084870101111561182757600080fd5b82602086016020830137600060208483010152809550505050505092959194509250565b60008060006060848603121561186057600080fd5b8335925061162f602085016115bd565b6000806040838503121561188357600080fd5b61188c836115bd565b915061189a602084016115bd565b90509250929050565b600181811c908216806118b757607f821691505b6020821081036118d757634e487b7160e01b600052602260045260246000fd5b50919050565b634e487b7160e01b600052601160045260246000fd5b8082018082111561037d5761037d6118dd565b634e487b7160e01b600052603260045260246000fd5b60006001820161192e5761192e6118dd565b5060010190565b6bffffffffffffffffffffffff19606095861b8116825260148201949094529190931b9091166034820152604881019190915260680190565b6001600160a01b03858116825284166020820152604081018390526080606082018190526000906119a190830184611565565b9695505050505050565b6000602082840312156119bd57600080fd5b8151610f948161150b565b600083516119da818460208801611541565b8351908301906119ee818360208801611541565b01949350505050565b8181038181111561037d5761037d6118dd565b634e487b7160e01b600052603160045260246000fdfea26469706673582212207b41e757205b7bf736403c1d90ce22cad1edfc0c1ac6593e4d9a7128d824759064736f6c63430008170033",
  "devdoc": {
    "errors": {
      "ERC721EnumerableForbiddenBatchMint()": [
        {
          "details": "Batch mint is not allowed."
        }
      ],
      "ERC721IncorrectOwner(address,uint256,address)": [
        {
          "details": "Indicates an error related to the ownership over a particular token. Used in transfers.",
          "params": {
            "owner": "Address of the current owner of a token.",
            "sender": "Address whose tokens are being transferred.",
            "tokenId": "Identifier number of a token."
          }
        }
      ],
      "ERC721InsufficientApproval(address,uint256)": [
        {
          "details": "Indicates a failure with the `operator`s approval. Used in transfers.",
          "params": {
            "operator": "Address that may be allowed to operate on tokens without being their owner.",
            "tokenId": "Identifier number of a token."
          }
        }
      ],
      "ERC721InvalidApprover(address)": [
        {
          "details": "Indicates a failure with the `approver` of a token to be approved. Used in approvals.",
          "params": {
            "approver": "Address initiating an approval operation."
          }
        }
      ],
      "ERC721InvalidOperator(address)": [
        {
          "details": "Indicates a failure with the `operator` to be approved. Used in approvals.",
          "params": {
            "operator": "Address that may be allowed to operate on tokens without being their owner."
          }
        }
      ],
      "ERC721InvalidOwner(address)": [
        {
          "details": "Indicates that an address can't be an owner. For example, `address(0)` is a forbidden owner in ERC-20. Used in balance queries.",
          "params": {
            "owner": "Address of the current owner of a token."
          }
        }
      ],
      "ERC721InvalidReceiver(address)": [
        {
          "details": "Indicates a failure with the token `receiver`. Used in transfers.",
          "params": {
            "receiver": "Address to which tokens are being transferred."
          }
        }
      ],
      "ERC721InvalidSender(address)": [
        {
          "details": "Indicates a failure with the token `sender`. Used in transfers.",
          "params": {
            "sender": "Address whose tokens are being transferred."
          }
        }
      ],
      "ERC721NonexistentToken(uint256)": [
        {
          "details": "Indicates a `tokenId` whose `owner` is the zero address.",
          "params": {
            "tokenId": "Identifier number of a token."
          }
        }
      ],
      "ERC721OutOfBoundsIndex(address,uint256)": [
        {
          "details": "An `owner`'s token query was out of bounds for `index`. NOTE: The owner being `address(0)` indicates a global out of bounds index."
        }
      ]
    },
    "events": {
      "Approval(address,address,uint256)": {
        "details": "Emitted when `owner` enables `approved` to manage the `tokenId` token."
      },
      "ApprovalForAll(address,address,bool)": {
        "details": "Emitted when `owner` enables or disables (`approved`) `operator` to manage all of its assets."
      },
      "BatchMetadataUpdate(uint256,uint256)": {
        "details": "This event emits when the metadata of a range of tokens is changed. So that the third-party platforms such as NFT market could timely update the images and related attributes of the NFTs."
      },
      "MetadataUpdate(uint256)": {
        "details": "This event emits when the metadata of a token is changed. So that the third-party platforms such as NFT market could timely update the images and related attributes of the NFT."
      },
      "Transfer(address,address,uint256)": {
        "details": "Emitted when `tokenId` token is transferred from `from` to `to`."
      }
    },
    "kind": "dev",
    "methods": {
      "approve(address,uint256)": {
        "details": "See {IERC721-approve}."
      },
      "balanceOf(address)": {
        "details": "See {IERC721-balanceOf}."
      },
      "getApproved(uint256)": {
        "details": "See {IERC721-getApproved}."
      },
      "isApprovedForAll(address,address)": {
        "details": "See {IERC721-isApprovedForAll}."
      },
      "name()": {
        "details": "See {IERC721Metadata-name}."
      },
      "ownerOf(uint256)": {
        "details": "See {IERC721-ownerOf}."
      },
      "safeTransferFrom(address,address,uint256)": {
        "details": "See {IERC721-safeTransferFrom}."
      },
      "safeTransferFrom(address,address,uint256,bytes)": {
        "details": "See {IERC721-safeTransferFrom}."
      },
      "setApprovalForAll(address,bool)": {
        "details": "See {IERC721-setApprovalForAll}."
      },
      "symbol()": {
        "details": "See {IERC721Metadata-symbol}."
      },
      "tokenByIndex(uint256)": {
        "details": "See {IERC721Enumerable-tokenByIndex}."
      },
      "tokenOfOwnerByIndex(address,uint256)": {
        "details": "See {IERC721Enumerable-tokenOfOwnerByIndex}."
      },
      "totalSupply()": {
        "details": "See {IERC721Enumerable-totalSupply}."
      },
      "transferFrom(address,address,uint256)": {
        "details": "See {IERC721-transferFrom}."
      }
    },
    "version": 1
  },
  "userdoc": {
    "kind": "user",
    "methods": {},
    "version": 1
  },
  "storageLayout": {
    "storage": [
      {
        "astId": 925,
        "contract": "src/ProposalNFT.sol:ProposalNFT",
        "label": "_name",
        "offset": 0,
        "slot": "0",
        "type": "t_string_storage"
      },
      {
        "astId": 927,
        "contract": "src/ProposalNFT.sol:ProposalNFT",
        "label": "_symbol",
        "offset": 0,
        "slot": "1",
        "type": "t_string_storage"
      },
      {
        "astId": 931,
        "contract": "src/ProposalNFT.sol:ProposalNFT",
        "label": "_owners",
        "offset": 0,
        "slot": "2",
        "type": "t_mapping(t_uint256,t_address)"
      },
      {
        "astId": 935,
        "contract": "src/ProposalNFT.sol:ProposalNFT",
        "label": "_balances",
        "offset": 0,
        "slot": "3",
        "type": "t_mapping(t_address,t_uint256)"
      },
      {
        "astId": 939,
        "contract": "src/ProposalNFT.sol:ProposalNFT",
        "label": "_tokenApprovals",
        "offset": 0,
        "slot": "4",
        "type": "t_mapping(t_uint256,t_address)"
      },
      {
        "astId": 945,
        "contract": "src/ProposalNFT.sol:ProposalNFT",
        "label": "_operatorApprovals",
        "offset": 0,
        "slot": "5",
        "type": "t_mapping(t_address,t_mapping(t_address,t_bool))"
      },
      {
        "astId": 2003,
        "contract": "src/ProposalNFT.sol:ProposalNFT",
        "label": "_ownedTokens",
        "offset": 0,
        "slot": "6",
        "type": "t_mapping(t_address,t_mapping(t_uint256,t_uint256))"
      },
      {
        "astId": 2007,
        "contract": "src/ProposalNFT.sol:ProposalNFT",
        "label": "_ownedTokensIndex",
        "offset": 0,
        "slot": "7",
        "type": "t_mapping(t_uint256,t_uint256)"
      },
      {
        "astId": 2010,
        "contract": "src/ProposalNFT.sol:ProposalNFT",
        "label": "_allTokens",
        "offset": 0,
        "slot": "8",
        "type": "t_array(t_uint256)dyn_storage"
      },
      {
        "astId": 2014,
        "contract": "src/ProposalNFT.sol:ProposalNFT",
        "label": "_allTokensIndex",
        "offset": 0,
        "slot": "9",
        "type": "t_mapping(t_uint256,t_uint256)"
      },
      {
        "astId": 2396,
        "contract": "src/ProposalNFT.sol:ProposalNFT",
        "label": "_tokenURIs",
        "offset": 0,
        "slot": "10",
        "type": "t_mapping(t_uint256,t_string_storage)"
      },
      {
        "astId": 6993,
        "contract": "src/ProposalNFT.sol:ProposalNFT",
        "label": "proposals",
        "offset": 0,
        "slot": "11",
        "type": "t_mapping(t_bytes32,t_struct(Proposal)6988_storage)"
      },
      {
        "astId": 6997,
        "contract": "src/ProposalNFT.sol:ProposalNFT",
        "label": "_tokenProposalIds",
        "offset": 0,
        "slot": "12",
        "type": "t_mapping(t_uint256,t_bytes32)"
      }
    ],
    "types": {
      "t_address": {
        "encoding": "inplace",
        "label": "address",
        "numberOfBytes": "20"
      },
      "t_array(t_uint256)dyn_storage": {
        "base": "t_uint256",
        "encoding": "dynamic_array",
        "label": "uint256[]",
        "numberOfBytes": "32"
      },
      "t_bool": {
        "encoding": "inplace",
        "label": "bool",
        "numberOfBytes": "1"
      },
      "t_bytes32": {
        "encoding": "inplace",
        "label": "bytes32",
        "numberOfBytes": "32"
      },
      "t_contract(IERC20)892": {
        "encoding": "inplace",
        "label": "contract IERC20",
        "numberOfBytes": "20"
      },
      "t_mapping(t_address,t_bool)": {
        "encoding": "mapping",
        "key": "t_address",
        "label": "mapping(address => bool)",
        "numberOfBytes": "32",
        "value": "t_bool"
      },
      "t_mapping(t_address,t_mapping(t_address,t_bool))": {
        "encoding": "mapping",
        "key": "t_address",
        "label": "mapping(address => mapping(address => bool))",
        "numberOfBytes": "32",
        "value": "t_mapping(t_address,t_bool)"
      },
      "t_mapping(t_address,t_mapping(t_uint256,t_uint256))": {
        "encoding": "mapping",
        "key": "t_address",
        "label": "mapping(address => mapping(uint256 => uint256))",
        "numberOfBytes": "32",
        "value": "t_mapping(t_uint256,t_uint256)"
      },
      "t_mapping(t_address,t_uint256)": {
        "encoding": "mapping",
        "key": "t_address",
        "label": "mapping(address => uint256)",
        "numberOfBytes": "32",
        "value": "t_uint256"
      },
      "t_mapping(t_bytes32,t_struct(Proposal)6988_storage)": {
        "encoding": "mapping",
        "key": "t_bytes32",
        "label": "mapping(bytes32 => struct ProposalNFT.Proposal)",
        "numberOfBytes": "32",
        "value": "t_struct(Proposal)6988_storage"
      },
      "t_mapping(t_uint256,t_address)": {
        "encoding": "mapping",
        "key": "t_uint256",
        "label": "mapping(uint256 => address)",
        "numberOfBytes": "32",
        "value": "t_address"
      },
      "t_mapping(t_uint256,t_bytes32)": {
        "encoding": "mapping",
        "key": "t_uint256",
        "label": "mapping(uint256 => bytes32)",
        "numberOfBytes": "32",
        "value": "t_bytes32"
      },
      "t_mapping(t_uint256,t_string_storage)": {
        "encoding": "mapping",
        "key": "t_uint256",
        "label": "mapping(uint256 => string)",
        "numberOfBytes": "32",
        "value": "t_string_storage"
      },
      "t_mapping(t_uint256,t_uint256)": {
        "encoding": "mapping",
        "key": "t_uint256",
        "label": "mapping(uint256 => uint256)",
        "numberOfBytes": "32",
        "value": "t_uint256"
      },
      "t_string_storage": {
        "encoding": "bytes",
        "label": "string",
        "numberOfBytes": "32"
      },
      "t_struct(Proposal)6988_storage": {
        "encoding": "inplace",
        "label": "struct ProposalNFT.Proposal",
        "members": [
          {
            "astId": 6976,
            "contract": "src/ProposalNFT.sol:ProposalNFT",
            "label": "creator",
            "offset": 0,
            "slot": "0",
            "type": "t_address"
          },
          {
            "astId": 6978,
            "contract": "src/ProposalNFT.sol:ProposalNFT",
            "label": "minimumFunding",
            "offset": 0,
            "slot": "1",
            "type": "t_uint256"
          },
          {
            "astId": 6981,
            "contract": "src/ProposalNFT.sol:ProposalNFT",
            "label": "biddingToken",
            "offset": 0,
            "slot": "2",
            "type": "t_contract(IERC20)892"
          },
          {
            "astId": 6983,
            "contract": "src/ProposalNFT.sol:ProposalNFT",
            "label": "tokenIdCounter",
            "offset": 0,
            "slot": "3",
            "type": "t_uint256"
          },
          {
            "astId": 6985,
            "contract": "src/ProposalNFT.sol:ProposalNFT",
            "label": "isClosed",
            "offset": 0,
            "slot": "4",
            "type": "t_bool"
          },
          {
            "astId": 6987,
            "contract": "src/ProposalNFT.sol:ProposalNFT",
            "label": "nonce",
            "offset": 0,
            "slot": "5",
            "type": "t_uint256"
          }
        ],
        "numberOfBytes": "192"
      },
      "t_uint256": {
        "encoding": "inplace",
        "label": "uint256",
        "numberOfBytes": "32"
      }
    }
  }
}